:020000040800F2
:10000000005000205D020008AD020008AD020008AB
:10001000AD020008AD020008AD02000800000000BB
:10002000000000000000000000000000AD02000819
:10003000AD02000800000000AD020008AD0200089B
:10004000AD020008AD020008AD020008AD020008D4
:10005000AD020008AD020008AD020008AD020008C4
:10006000AD020008AD020008AD020008AD020008B4
:10007000AD020008AD020008AD020008AD020008A4
:10008000AD020008AD020008AD020008AD02000894
:10009000AD020008AD020008AD020008AD02000884
:1000A000AD020008AD020008AD020008AD02000874
:1000B000AD020008AD020008AD020008AD02000864
:1000C000AD020008AD020008AD020008AD02000854
:1000D000AD020008AD020008AD020008AD02000844
:1000E000AD020008AD02000800000000AD020008EB
:1000F000AD020008AD020008AD020008AD02000824
:10010000AD020008AD020008AD020008AD02000813
:10011000AD020008AD020008AD020008AD02000803
:10012000AD020008AD020008AD020008AD020008F3
:1001300010B5054C237833B9044B13B10448AFF321
:1001400000800123237010BD040000200000000087
:10015000F802000808B5034B1BB103490348AFF38D
:10016000008008BD0000000008000020F802000820
:1001700080B400AF00BFFDE780B400AF334B1B6815
:10018000324A43F48033136000BF304B1B6803F4E2
:100190000033002BF9D02D4B1B682C4A43F0010390
:1001A00013602B4B14221A60284B5B68274A23F4F8
:1001B0007F5323F030035360244B244A5B68536021
:1001C000224B5B68214A43F4806353601F4B1F4AF4
:1001D0005B6853601D4B5B681C4A23F47C135360BF
:1001E0001A4B5B68194A43F4E0135360174B5B6882
:1001F000164A43F480335360144B1B68134A43F090
:100200008073136000BF114B1B6803F00073002B59
:10021000F9D00E4B5B6823F003030C4A43F0020352
:10022000536000BF094B5B6803F00C03082BF9D146
:10023000064B1B68054A43F400231360054B064A2E
:100240001A6000BFBD4680BC704700BF001002406E
:10025000002002400000002000A24A040D4885460C
:10026000FFF78AFF0C480D490D4A002302E0D458DD
:10027000C4500433C4188C42F9D30A4A0A4C0023F0
:1002800001E013600432A242FBD300F011F8FFF743
:100290006FFFFEE700500020000000200400002057
:1002A000180300080400002020000020FEE70000E2
:1002B00070B500260C4D0D4C641BA410A64209D14C
:1002C00000F01AF800260A4D0A4C641BA410A6423E
:1002D00005D170BD55F8043B98470136EEE755F857
:1002E000043B98470136F2E71003000810030008AA
:1002F0001003000814030008F8B500BFF8BC08BCE0
:100300009E467047F8B500BFF8BC08BC9E467047D3
:04031000550100088B
:0403140031010008AB
:0403180000A24A04F1
:040000050800025D90
:00000001FF
